:020000040800F2
:1000000000C001204D8E0008E50A0008E90A00083A
:10001000ED0A0008F10A0008F50A000800000000D7
:10002000000000000000000000000000F90A0008C5
:10003000FD0A000800000000010B0008050B000885
:10004000998E0008998E0008998E0008998E0008F4
:10005000998E0008998E0008A90C0008998E000856
:10006000998E0008998E0008998E00088536000840
:10007000998E0008998E0008998E0008998E0008C4
:10008000998E0008998E0008998E0008998E0008B4
:10009000998E0008998E0008998E0008998E0008A4
:1000A000998E0008998E0008998E0008998E000894
:1000B000998E0008998E0008998E0008998E000884
:1000C000998E0008998E0008998E0008998E000874
:1000D000998E0008998E0008998E0008998E000864
:1000E000998E0008998E0008B90C0008998E0008B6
:1000F000998E0008998E0008998E0008E93500084D
:10010000998E0008998E0008998E00082137000802
:10011000998E0008998E0008998E0008998E000823
:10012000998E0008998E0008998E0008998E000813
:10013000998E0008998E0008998E0008998E000803
:10014000998E0008998E0008998E0008E90C000825
:10015000998E0008998E0008998E0008998E0008E3
:10016000998E0008998E0008998E0008998E0008D3
:10017000998E0008998E0008998E0008998E0008C3
:08018000998E0008998E000819
:1001880030B52B4B402183B000221846197003214B
:1001980099705A70DA701A7101F0B0FC254B202260
:1001A80018461A7001240C229A705C7001F05AFDEE
:1001B8001E2001F0A5FB0F216846224601F04EFEE5
:1001C8009DF800303B2B01D001F0B0FB1A4D1B4CC1
:1001D8004FF4FA732B602B68184829210422002B4E
:1001E80023D001F03BFE94F90030A278002BB8BF71
:1001F8005B42DBB20F2B52B205D8002AB8BF52427D
:10020800D2B20F2AE7D9002001F0F8FE002001F051
:1002180061FF0028FAD0002001F05CFF0128FAD025
:10022800002001F0F9FE03B030BD01F07FFBFAE7D2
:10023800D8010020E8010020E0010020F407002098
:100248002DE9F0410D2082B0012105F0D9FB0024F1
:10025800012502262027CB48009769468DF80450CF
:100268008DF806408DF807408DF8056004F0AEFF64
:100278003946C44805F038F8C348009569464FF434
:1002880000778DF804508DF806408DF807408DF8FA
:10029800056004F09BFFBD48009769468DF804404F
:1002A8008DF806408DF807408DF8056004F08EFF44
:1002B8002946B54805F018F8284601F021FBB3484F
:1002C800394604F0FBFF002800F0CB810023694683
:1002D8004FF480640125AD488DF804308DF8063060
:1002E80002238DF8053000948DF8075004F06EFF56
:1002F800284601F005FBA548214604F0DFFF002849
:1003080000F0BB81A048012104F0ECFF01244FF468
:10031800C053002502279D48009369464FF4007694
:100328008DF804508DF806508DF807408DF805704B
:1003380004F04CFF9548009669468DF804408DF806
:1003480006508DF807408DF8057004F03FFF3146E0
:100358008E4804F0C9FF204601F0D2FA8B484FF4CA
:10036800006104F0ABFF002800F0788187484FF463
:10037800805104F0A3FF002800F0708101240025BB
:100388004FF480574FF002088048009769464FF4B1
:1003980000668DF804508DF806508DF807408DF8EA
:1003A800058004F013FF7948009669468DF80440EB
:1003B8008DF806508DF807408DF8058004F006FF8B
:1003C8003146724804F090FF204601F099FA6F48D0
:1003D800394604F073FF002800F04C810124002501
:1003E8004FF400674FF002086848009769464FF4D9
:1003F80080568DF804508DF806508DF807408DF81A
:10040800058004F0E3FE6148009669468DF80440D3
:100418008DF806508DF807408DF8058004F0D6FE5B
:1004280031465A4804F060FF204601F069FA5748FF
:10043800394604F043FF002800F019810123002405
:100448004FF4007551488DF80430694602238DF841
:10045800053000958DF806408DF8074004F0B6FE8B
:100468004A48294604F03EFF204601F0C7FD002017
:1004780001F030FE0028FAD0002001F02BFE002801
:10048800FAD101F0C9FD41484FF4007104F02CFF86
:100498003C48202104F026FF3C484FF4806104F0DA
:1004A8000DFF002840F0E0804FF4C05300260225DD
:1004B80036480093694601244FF400778DF80460AC
:1004C8008DF806608DF807508DF8055004F07EFE13
:1004D8002E48009769468DF804408DF806608DF81F
:1004E80007408DF8055004F071FE3946274804F09E
:1004F800F9FE204601F004FA24484FF4006104F0A4
:10050800DDFE002800F0A48020484FF4805104F05C
:10051800D5FE002800F09C804FF490530026022559
:100528001A480093694601244FF400678DF8046067
:100538008DF806608DF807508DF8055004F046FEDA
:100548001248009769468DF804408DF806608DF8CA
:1005580007408DF8055004F039FE39460B4804F081
:10056800C1FE204601F0CCF908484FF4007104F0B0
:10057800A5FE00286FD005484FF4805104F09EFE78
:1005880006E000BF000C02400008024000000240E4
:10059800002860D04FF420630026022538480093D5
:1005A800694601244FF480578DF804608DF8066081
:1005B8008DF807508DF8055004F008FE3048009774
:1005C80069468DF804408DF806608DF807408DF86F
:1005D800055004F0FBFD3946294804F083FE204607
:1005E80001F08EF926484FF4007104F067FE28B137
:1005F80023484FF4006104F061FE08B901F096F950
:100608000025022469464FF4C0531D4800934FF457
:1006180000768DF804508DF806508DF807408DF857
:10062800054004F0D3FD01236946154800968DF86E
:1006380004308DF806508DF807308DF8054004F029
:10064800C5FD0F48314604F04FFE02B0BDE8F08109
:1006580001F06CF960E701F069F99BE701F066F9D0
:100668008CE601F063F931E601F060F91CE701F06E
:100678005DF9E3E601F05AF9B0E601F057F941E611
:10068800000002402DE9F04F4FF4807083B0012143
:1006980005F0E6F901214FF4007005F0E1F90120B9
:1006A80001F054FE022057214BF6803201F09EFEE5
:1006B800002840F04781A64BDFF8B492A54CA64E1F
:1006C800A64DDFF8A8824FF44032002718465A603A
:1006D8004FF47062DA601F609F60277003F07EF944
:1006E800484603F071F94FF0010A4FF0007349468C
:1006F8009B48C9F8003089F8047089F80570C9F872
:100708000870C9F8107089F814A003F031F9494647
:10071800944803F02DF94FF0030904234FF0020B1E
:100728009148009369468DF804908DF805B08DF8CE
:10073800077004F04BFD08238B480093694604F0CA
:1007480045FD4B468648678059465246A78003F0C8
:1007580097F94B4649465246824803F091F980483A
:10076800514603F055F97F48514603F051F94FF4CB
:10077800FA733360A1463768002F00F0D5807848B7
:1007880003F0CEF97648022103F0B4FA0028F9D034
:10079800734803F0F5F9034672482B8003F0C0F95B
:1007A8007048022103F0A6FA0028F9D06D4803F03A
:1007B800E7F9A8F800002B889BB2962B0ED96B4B53
:1007C8001B889BB2092B09D863889BB2B3F5FA7FC3
:1007D80004D0B9F802300133A9F802302B889BB253
:1007E800092B0ED8B8F800309BB2962B09D9A388EC
:1007F8009BB2B3F5FA7F04D0B9F804300133A9F8F5
:10080800043063889BB2B3F5FA7FB4D1B9F80430E9
:100818009BB2B3F5FA7FAED15148002103F0F8F846
:100828005048002103F0F4F802F016FB022001F012
:100838008DFD022064214BF6803201F0D7FD00289F
:1008480040F083804FF00109002345486380494602
:10085800A38084F8009003F0DBF842483F4D434FF3
:10086800DFF8F080494603F0D3F84FF4FA733360A9
:100878003368002B63D03A4803F052F93848022114
:1008880003F038FA0028F9D0354803F079F903461F
:1008980034482B8003F044F93248022103F02AFA45
:1008A8000028F9D02F4803F06BF938802B889BB2C9
:1008B800AA2B0ED92D4B1B889BB2AA2B09D963886A
:1008C8009BB2B3F5FA7F04D0B8F802300133A8F828
:1008D80002302B889BB2092B0DD83B889BB2092B81
:1008E80009D8A3889BB2B3F5FA7F04D0B8F80430CE
:1008F8000133A8F8043063889BB2B3F5FA7FB7D107
:10090800B8F804309BB2B3F5FA7FB1D1002001F0FA
:1009180075FB002001F0DEFB0028FAD0002001F072
:100928007BFB03B0BDE8F08F39460D4803F070F843
:100938000C48394603F06CF800F0F8FF74E700F053
:10094800F5FFE3E700F0F2FFB5E600F0EFFF79E727
:10095800B801002048010020E00100208C0100209F
:10096800002001400021014000000240C801002091
:1009780090010020F0B54FF4804087B0012105F0C8
:1009880063F806AE0620012105F03AF84FF48063BB
:10099800002546F8183D012702232D488DF804301C
:1009A80069468DF806508DF807708DF8057004F0CB
:1009B8000DFC05222648274C0A2104F0A3FC082335
:1009C80025480093694604F001FC052203212248CA
:1009D80004F098FC214805F0FFF84FF47A4304939B
:1009E80010231E48ADF80A3002A94FF44073ADF841
:1009F8000830ADF80C50ADF81450ADF80E5005F0B5
:100A08004BF91648394605F0DBF90A2000F078FF63
:100A18004FF4FA7323604FF6FF76236893B10F48BB
:100A2800012105F083FA10B92368002BF7D10B4890
:100A380005F03EFAB04208D01D2DEED91E2D01D189
:100A480007B0F0BD00F072FFFAE70135EDB2F3E749
:100A580000040240E0010020000802400038004085
:100A6800704700BF704700BF30B4174B1A7872B98F
:100A7800D988D1B91A891548541CA4B2302C30F839
:100A8800120014BF1C8119810122DA800BE01A8937
:100A98000E48511C30F812008AB2302A08BF0022D2
:100AA80080F400401A8130BC7047094C07482188FF
:100AB8004D1CADB2302D14BF25802280002230F8A5
:100AC8001100DA80EFE700BF480100209C8E000883
:100AD80000000020FEE700BFFEE700BF704700BF30
:100AE800FEE700BFFEE700BFFEE700BFFEE700BF6E
:100AF800704700BF704700BF704700BF2DE9F04145
:100B0800604B1B7873B3604D604C95F9022000234D
:100B1800901C6370A3701ADB022A01DDF92363704D
:100B280095F90020911C18DA0722A2700BB9A37856
:100B380023B157485549042207F040FD2379534F04
:100B48000133DBB20A2B237110D0BDE8F08195F98F
:100B580000200723911C6370E6DB022AE6DDF922F8
:100B6800A270E3E7BDE8F04100F0D6BE00263146AA
:100B7800324648482E70AE7005F09EFD3246454814
:100B8800DFF80481042105F097FD32464148082129
:100B980005F092FD32460C213E4805F08DFD404699
:100BA8002921062201F05AF93B4B287819783B4B4A
:100BB800AA781B78411AD21A56B24BB2002EB8BF87
:100BC800764283EAE370A0EBE370F6B2C0B28642E5
:100BD80028BF3046787178792970AA7088B19A1C34
:100BE80040DB022B30DC95F90230022B1BDC023390
:100BF8000BDB6379274840F2CF7191FBF3F105F0E5
:100C0800F9FA00232371BDE8F08108212148012267
:100C180005F052FD63791F484FF47A7191FBF3F1A7
:100C280005F078FCE5E71B480021012205F044FDAA
:100C3800637918484FF47A7191FBF3F105F066FC7B
:100C4800114B93F90230D2E704211248012205F032
:100C580033FD63790F484FF47A7191FBF3F105F096
:100C680057FCC0E70B480C21012205F025FD7B79D4
:100C780008484FF47A7191FBF3F105F04DFC98F9AF
:100C88000030AEE760010020F40700205401002086
:100C9800040200200008004000020020E4010020B7
:100CA8000123024A1846137003F082BB6201002038
:100CB80010B5094CA37A4BB1084B1A6922F0060209
:100CC8001A6100F013F8204607F0D0F94FF480209D
:100CD800BDE8104003F06CBB0402002000ED00E00A
:100CE800014806F085BA00BF040200203F4B19688E
:100CF800002241F0010119609A60196821F084719D
:100D080021F4803119603A495960196882B021F498
:100D180080211960DA60009201921A6842F48032E8
:100D28001A601A4603E0009BB3F5A06F09D0136858
:100D380003F400330193009B01330093019B002BC4
:100D4800F1D02A4B1B6813F4003319D00123019307
:100D5800019B012B18D0254A936823F40003936064
:100D6800244BC2F88430136843F08063136013681F
:100D78001B01FCD5204B4FF000629A6002B070470F
:100D88000193019B012BE6D1184B1C4A196C41F0C9
:100D980080511964116841F4804111609A689A6021
:100DA8009A6842F400429A609A6842F4A0529A60A3
:100DB800134A5A601A6842F080721A6019460B6822
:100DC8000A4A9801FBD50F4B40F2056119609368F8
:100DD80023F003039360936843F0020393609368DE
:100DE80003F00C03082BFAD1B5E700BF0038024026
:100DF800103000240030005000ED00E0007000408A
:100E080008544007003C0240164B9A6802F00C0256
:100E1800042A0CD0082A0CD0134A1249134B8968AB
:100E2800C1F30311595C22FA01F21A617047104AA2
:100E3800F3E7586859685B6842024CBF0C4A0A4A93
:100E480001F03F01C3F38813B2FBF1F202FB03F296
:100E5800044B5B68C3F3014301335B00B2FBF3F25D
:100E6800DBE700BF003802400024F4000C0000203B
:100E780000127A00F0B5012083B02A4D014604F033
:100E8800BFFD4FF4D8530026032769462846009330
:100E980002238DF804308DF805708DF806608DF802
:100EA800076004F093F9284608210A2204F02AFA78
:100EB800284609210A2204F025FA28460B210A228D
:100EC80004F020FA0A2228460C2104F01BFA012417
:100ED8004FF480636946284600938DF806408DF8E4
:100EE80007408DF8057004F071F90A210A46284672
:100EF80004F008FA21464FF4804004F0B1FD802048
:100F0800214604F089FD21464FF0805004F0D8FDB9
:100F18003046214601F09EF8204603F049FA03B016
:100F2800F0BD00BF0000024000B54FF4C06083B0C0
:100F380002F0AAFC432201238DF8042001A8032211
:100F48008DF805308DF806208DF8073002F0A6FCE4
:100F580003B000BDC0EB0010064BC200A3FB021398
:100F6800D21A03EB52029208002301339A42FCD2B0
:100F7800704700BF25499224074B03FB00F0074B3D
:100F8800A3FB0023C21A03EB520292080023013389
:100F98009A42FCD2704700BFC0D401002549922470
:100FA8002DE9F041782082B00121484C484D04F0E9
:100FB80027FD0120014604F03BFD00210C222046BC
:100FC80004F0A0F9204601210C2204F09BF92046E8
:100FD80004210C2204F096F9204605210C2204F085
:100FE80091F9204607210C2204F08CF920460821AB
:100FF8000C2204F087F9204609210C2204F082F91A
:1010080020460A210C2204F07DF920460B210C22EF
:1010180004F078F920460E210C2204F073F92046DA
:101028000F210C2204F06EF907210C22284604F047
:1010380069F9284608210C2204F064F92846092198
:101048000C2204F05FF928460A210C2204F05AF910
:1010580028460B210C2204F055F90C2128460A4693
:1010680004F050F928460D210C2204F04BF92846CB
:101078000E210C2204F046F928460F210C2204F018
:1010880041F9002603274FF00208204669464CF62E
:10109800B37300938DF804808DF805708DF80660A1
:1010A8008DF8076004F092F84FF680732846694679
:1010B80000938DF804808DF805708DF806608DF822
:1010C800076004F083F802B0BDE8F081000C02402C
:1010D8000010024030B597B00223029310230A9300
:1010E8004FF48053002410934FF40023012507A8E0
:1010F80013930DEB04031493009401940394049543
:10110800059406940794089409940B940D940E94EE
:101118000F9411940C94129405F020FE042307A850
:1011280002930DEB04030094019403940495059431
:101138000694159305F012FE2046294605F09CFEFC
:1011480017B030BD00B585B0684604F0E7FB019ADA
:101158000849094BA1FB02029209013A5A60074A61
:10116800F02182F8231000229A6007221A6005B045
:1011780000BD00BFD34D621010E000E000ED00E0BC
:101188002DE9F043012083B0DFF8DC802F4F304E8B
:10119800014604F035FC4FF48063002501244FF02C
:1011A800020969464046009303238DF805308DF8FF
:1011B80004908DF806508DF8074004F007F8404673
:1011C80022460A2104F09EF8224B23491A68234B31
:1011D800A3FB02039B0B013B9BB25A1E02EB42028C
:1011E80002EB4212A1FB02025209204621467A80F4
:1011F8003B8004F035FC1A4BB7F800E01D80304600
:101208001946C3F804E05D801D819D7204F092FFC9
:10121800144B7A885C8070271F80042719469F80AA
:1012280030464FF48077A3F80C90DD811F825D82F1
:101238009A6005F0C1F83046214605F025F8304699
:10124800214605F019FC03B0BDE8F0835C010020DD
:10125800000001401C0000201F85EB510D3AB8EE3C
:10126800CC010020EC0100200000024070B5A34C26
:1012780096B0FFF795FE40F6B83323602568002D39
:10128800FCD10223029310230A934FF4805300A940
:10129800012607A810934FF4002314911393009587
:1012A8000195039504960595069507950895099562
:1012B8000B950D950E950F9511950C95129505F0BA
:1012C8004DFD042307A8029300AB159300950195E3
:1012D800039504960595069505F040FD2846314688
:1012E80005F0CAFD854B40F6B8321A602368002B1A
:1012F800FCD1FFF745FF824A824D1188824E696012
:101308000139642505FB01F5804B8148A6FB0515CD
:101318006D091946AEB255809E6005F04DF84FF044
:10132800C04307221A8003F5003321221A80734B29
:1013380032221A602368002BFCD14FF0C042138080
:10134800744B01221A806D4B32221A602368002BDD
:10135800FCD14FF0C04307221A8003F50033232243
:101368001A80664B32221A602368002BFCD14FF09A
:10137800C0421021118002F5003213805F4B5A22BF
:101388001A602368002BFCD14FF0C04307221A8053
:1013980003F5003333221A80584B32221A6023682F
:1013A800002BFCD14FF0C04311221A8003F5003303
:1013B80046F630021A80514B32221A602368002BFD
:1013C800FCD14FF0C04302221A8003F500334FF4DA
:1013D800C0621A80494B32221A602368002BFCD164
:1013E8004FF0C04312221A8003F5003346F6EB4251
:1013F8001A80424B32221A602368002BFCD14FF02E
:10140800C04303221A8003F500334AF6A4021A8067
:101418003A4B32221A602368002BFCD14FF0C042AD
:101428000C21118002F500321380344B32221A60ED
:101438002368002BFCD14FF0C0430D221A8003F51E
:10144800003340F60C021A802C4B32221A602368B3
:10145800002BFCD14FF0C0430E221A8003F5003355
:101468004FF42C521A80254B32221A602368002B25
:10147800FCD14FF0C0431E221A8003F50033B0227E
:101488001A801E4B32221A602368002BFCD14FF0C1
:10149800C04301221A8003F5003342F63F321A8016
:1014A800164B32221A602368002BFCD14FF0C04241
:1014B8000521118002F500321380104B32221A6088
:1014C8002368002BFCD14FF0C0420621118002F5A1
:1014D80000321380094B32221A602368002BFCD19A
:1014E8004FF0C04316221A8003F500334EF61C72E3
:1014F8001A80024B32221A600EE000BFE001002081
:101508005C010020CC0100201F85EB51EC0100207C
:1015180000000140000002602368002BFCD14FF05E
:10152800C04317221A8003F50033EC321A80AA4B05
:1015380032221A602368002BFCD14FF0C0420B21E5
:10154800118002F500321380A34B32221A602368FF
:10155800002BFCD14FF0C0420F21118002F5003260
:1015680013809D4B32221A602368002BFCD14FF068
:10157800C0424121118002F500321380964B32227D
:101588001A602368002BFCD14FF0C0424221118021
:1015980002F500321380904B32221A602368002B28
:1015A800FCD14FF0C0424821118002F5003213806F
:1015B800894B32221A602368002BFCD14FF0C043BC
:1015C80049221A8003F50033F6321A80824B322200
:1015D8001A602368002BFCD14FF0C0424A211180C9
:1015E80002F5003213807C4B32221A602368002BEC
:1015F800FCD14FF0C0424B21118002F5003213801C
:10160800754B32221A602368002BFCD14FF0C0437F
:1016180044221A8003F500334FF46F421A806E4B50
:1016280032221A602368002BFCD14FF0C0424521BA
:10163800118002F500321380674B32221A6023684A
:10164800002BFCD14FF0C04346221A8003F500332B
:10165800F9321A80604B32221A602368002BFCD1C1
:101668004FF0C04330221A8003F5003340F207726E
:101678001A80594B32221A602368002BFCD14FF094
:10168800C04331221A8003F500334FF401721A80E7
:10169800514B32221A602368002BFCD14FF0C04214
:1016A8003223138002F500324FF4017111804A4A47
:1016B80013602368002BFCD14FF0C04333221A80FB
:1016C80003F5003340F202521A80434B32221A606B
:1016D8002368002BFCD14FF0C04334221A8003F555
:1016E800003340F207521A803B4B32221A602368BB
:1016F800002BFCD14FF0C04335221A8003F500338C
:101708004FF401721A80344B32221A602368002B7E
:10171800FCD14FF0C04336221A8003F500334FF452
:1017280001721A802C4B32221A602368002BFCD1DC
:101738004FF0C04337221A8003F5003340F20252BB
:101748001A80254B32221A602368002BFCD14FF0F7
:10175800C0433A221A8003F5003302F532721A8028
:101768001D4B32221A602368002BFCD14FF0C04376
:101778002F221A8003F5003341F2BE221A80164B3D
:1017880032221A602368002BFCD14FF0C0433B2261
:101798001A8003F5003340F202321A800E4B3222CF
:1017A8001A602368002BFCD14FF0C042232111801E
:1017B80002F500321380084B32221A602368002B8E
:1017C800FCD14FF0C0422421118002F50032138071
:1017D800014B322202E000BFE00100201A602368BA
:1017E800002BFCD14FF0C04325221A8003F50033AB
:1017F8004FF400421A80114B32221A602368002BE2
:10180800FCD14FF0C0424F21118002F50032138005
:101818000A4B32221A602368002BFCD14FF0C042D9
:101828004E21118002F500321380044B32221A60D7
:101838002368002BFCD116B070BD00BFE00100206A
:101848004FF0C04322221A80704700BF014B188016
:10185800704700BF000002604FF0C043188003F5D6
:1018680000331980704700BF4FF0C042044B10B4DA
:101878004E24148018804F201080198010BC7047A7
:101888000000026030B44FF0C041094C00254E23DF
:101898004F220B8025800A802580224622244FF47F
:1018A80096330C80013B1080FCD130BC704700BFE0
:1018B800000002600D490E4B0A8820EAE07030B43F
:1018C8006428B4BF04466424501E00FB04F409488D
:1018D800A0FB04546409A5B24C800748074C9D60DE
:1018E8001946626030BC04F067BD00BF5C0100208F
:1018F800EC0100201F85EB5100000140CC010020C5
:1019080082B0044A0190019B13601368002BFCD13C
:1019180002B07047E0010020034B1A6812B11A6840
:10192800013A1A60704700BFE001002008B50221A3
:10193800582002F099FD0748074C4FF0553102F046
:10194800ADFF0525022000F075FB25602368002BFC
:10195800FCD1F7E7FCFF0F08E001002008B5034BB6
:101968001B7903B1FEE7FFF7E1FF00BF5C01002030
:1019780070B505460E462D482D4C082103F0B4FCE1
:101988004FF48053236003E023685A1E2260E3B1BA
:101998002848022104F0CAFA0028F5D0254846F064
:1019A800800104F089FA4FF48053236003E0236830
:1019B8005A1E22604BB11F48012104F0B7FA0028D3
:1019C800F5D01C4804F074FA01E0FFF7C7FF4FF4A4
:1019D8008053236004E023685A1E2260002B21D024
:1019E8001448022104F0A2FA0028F4D0114800217A
:1019F80004F062FA4FF48053236003E023685A1E10
:101A080022607BB10B48012104F090FA0028F5D040
:101A1800084804F04DFA287004480821BDE87040D1
:101A280003F060BCFFF79AFFF5E700BF0010024023
:101A3800200000200030014070B505460E462C48B5
:101A48002C4C082103F050FC4FF48053236003E032
:101A580023685A1E2260DBB12748022104F066FA87
:101A68000028F5D02448314604F026FA4FF4805374
:101A7800236003E023685A1E22604BB11E480121EF
:101A880004F054FA0028F5D01B4804F011FA01E0DC
:101A9800FFF764FF4FF480532D78236004E0236838
:101AA8005A1E2260002B20D01348022104F03EFA6F
:101AB8000028F4D01048294604F0FEF94FF480536A
:101AC800236003E023685A1E226073B10A4801218B
:101AD80004F02CFA0028F5D0074804F0E9F9044886
:101AE8000821BDE8704003F0FDBBFFF737FFF6E7BC
:101AF8000010024020000020003001402DE9F04F86
:101B080089B00025804601214FF480508DF803509C
:101B180003F0A6FF0120014603F072FF1020012107
:101B280003F06EFF102001214B4EDFF830B1DFF8D3
:101B3800309103F065FF1020012103F061FF0521BA
:101B48000A46304608AC03F0DDFB30460621052284
:101B580003F0D8FB4FF0200A05223046072103F096
:101B6800D1FB44F81CAD0227304621468DF8087099
:101B78008DF80A508DF80B708DF8097003F026FB6C
:101B8800802330462146019303F020FB4023214661
:101B98003046019303F01AFB584604F01DF84FF441
:101BA8000073ADF816300723082603A95846ADF888
:101BB8001C304FF48273ADF80E30ADF80C50ADF810
:101BC8001050ADF81250ADF81450ADF81860ADF8DB
:101BD8001A5004F037F85846012104F0E3F84FF0A2
:101BE800010B4846214601968DF808B08DF80A5039
:101BF8008DF8097003F0EAFA4846314603F072FBA3
:101C080048462146CDF804B08DF808508DF80A50A2
:101C18008DF809708DF80B5003F0D8FA4846214624
:101C2800019703F0D3FA98F8004098F8013098F833
:101C3800030098F8041098F80220234303430B4349
:101C48000DEB0A00134300F81D3D5146FFF7F4FE63
:101C580009B0BDE8F08F00BF00000240003001402D
:101C68000010024030B583B002AC002304F8013DF7
:101C7800054621212046FFF77BFE68782B789DF8E2
:101C88000720A97803430B4322F02F021343204671
:101C980021218DF80730FFF7CFFE03B030BD00BF1C
:101CA80030B583B002AC002304F8013D0546382165
:101CB8002046FFF75DFE69782B78AA780B4313431B
:101CC800204638218DF80730FFF7B6FE03B030BD47
:101CD80010B582B0202104460DF10700FFF748FE39
:101CE8009DF8073023F040031C430DF10700202125
:101CF8008DF80740FFF7A0FE02B010BD10B582B006
:101D0800202104460DF10700FFF732FE9DF8073049
:101D180003F07F031C430DF1070020218DF80740D5
:101D2800FFF78AFE02B010BD10B582B0202104462C
:101D38000DF10700FFF71CFE9DF8073023F0200384
:101D48001C430DF1070020218DF80740FFF774FEB2
:101D580002B010BD00B583B00DF107002121FFF7D7
:101D680007FE9DF807300DF1070043F040032121DD
:101D78008DF80730FFF760FE03B000BD012A2DE99A
:101D8800F0418846074688BF41F040083048314C4A
:101D98000821164603F0A8FA4FF48053236004E0A4
:101DA80023685D1E2560002B4CD02B48022104F0CF
:101DB800BDF80028F4D02848414604F07DF84FF4D7
:101DC8008053236004E02368591E2160002B39D01A
:101DD8002148012104F0AAF80028F4D01E4804F094
:101DE80067F84EB3013E7D1E17FA86F74FF480560A
:101DF80015F8018F266004E023685A1E2260002B24
:101E080023D01548022104F091F80028F4D0124894
:101E1800414604F051F8266003E023685A1E226008
:101E28009BB10D48012104F081F80028F5D00A483B
:101E380004F03EF8BD42DBD105480821BDE8F04179
:101E480003F050BAFFF78AFDCBE7FFF787FDF1E70C
:101E5800001002402000002000300140012AF8B59F
:101E68008CBF41F0C00741F080070546304C31482F
:101E78000821164603F038FA4FF48053236004E033
:101E88002368581E2060002B4CD02B48022104F0F8
:101E98004DF80028F4D02848394604F00DF84FF4DE
:101EA8008053236004E02368591E2160002B39D039
:101EB8002148012104F03AF80028F4D01E4803F024
:101EC800F7FF4EB3013EB7B20137EF194FF4805612
:101ED800266004E023685A1E2260002B25D016488D
:101EE800022104F023F80028F4D01348002103F05D
:101EF800E3FF266003E023685A1E2260ABB10E4858
:101F0800012104F013F80028F5D00B4803F0D0FFA6
:101F180005F8010BBD42DBD106480821BDE8F840B1
:101F280003F0E0B9FFF71AFDCBE7FFF717FDEFE77E
:101F380020000020001002400030014010B584B09D
:101F4800202104460DF10700FFF712FD062202A822
:101F58002921FFF783FF9DF8073003F0200303F0E2
:101F6800FF0293B99DF908109DF90A209DF90C30DC
:101F780001EBC10102EBC20203EBC30349005200AB
:101F88005B0084E80E0004B010BD002AFBD09DF968
:101F980008109DF90A209DF90C3001EBC10102EBF4
:101FA800C20203EBC303C900D200DB0084E80E00C1
:101FB800E9E700BF30B50F4D044655F8200005EBA2
:101FC800440583B0012103F01BFD2B8A0A4A0093C4
:101FD800012352F824008DF8043000228DF80730D0
:101FE800694602238DF806208DF8053003F0EEF8D7
:101FF80003B030BDFC8E000824000020044A054BC5
:1020080002EB400253F82030128A1A83704700BF4F
:10201800FC8E000824000020044A054B02EB400215
:1020280053F82030128A5A83704700BFFC8E00088C
:1020380024000020054A064B53F8203002EB4000EC
:102048005A69018A4A405A61704700BFFC8E0008ED
:102058002400002030B50446012087B00D46014613
:1020680003F0CEFC01214FF4804003F0F9FC06A9EF
:10207800012241F8102D164A02EB8402002410694F
:102088008DF80C408DF80F4003F0A0F8012D01D019
:1020980007B030BD2046214601F0C6FB082304A83E
:1020A8008DF8153004958DF814408DF8165002F00F
:1020B80013F90F23062201A88DF804208DF80530A6
:1020C8008DF806308DF8075001F0E8FBE0E700BF17
:1020D8002400002008B5044B03EB800001210069AF
:1020E80003F0ECF808BD00BF2400002070B5002202
:1020F80005460E467248734C942103F0F5F94FF4E7
:10210800805323606E48704903F0ECFA40B92368A5
:102118005A1E2260002BF5D1BDE87040FEF7DCBCEA
:102128006748294603F076FA4FF4805323606448E1
:10213800664903F0D7FA28B923685A1E2260002B93
:10214800F5D1E9E75E48314603F064FA4FF4961397
:1021580023605F495A4803F0D9FA38B923685A1EF0
:102168002260002BF5D1FEF7B7FCF2E754480121B5
:1021780003F0ACF94FF49613236051484FF4003143
:1021880003F0C4FA58B123685A1E2260002BF4D118
:10219800FEF7A2FC0546701B18BF012070BD484819
:1021A800012103F085F94FF48053236044484949DD
:1021B80003F098FA28B923685A1E2260002BF5D13B
:1021C800E6E73F489421002203F08EF94FF480534C
:1021D80023603B483C4903F085FA28B923685A1E16
:1021E8002260002BF5D1D3E73548294603F012FACF
:1021F8004FF4805323603248354903F087FA28B9F1
:1022080023685A1E2260002BF5D1C1E72C48012112
:1022180003F04EF94FF48053236029482D4903F009
:1022280061FA28B923685A1E2260002BF5D1AFE75E
:1022380023489421012203F057F94FF48053236077
:1022480004E023685A1E2260002BA1D01C4D2249AD
:10225800284603F05BFA0028F3D02846002103F053
:102268004DF9284601212B8B03F030F94FF48053A8
:1022780023601348194903F049FA28B923685A1EFC
:102288002260002BF5D183E70D4803F0C5F94FF420
:1022980080530B4A23600546138803F400739BB2EE
:1022A8002BB12368591E2160002BF5D170E701215D
:1022B800034803F023F90248094903F043FA6AE79F
:1022C800005400403800002082000700800007000A
:1022D800040000100100030002000010400000107C
:1022E8000004001070B5164C4FF4961306460D46C0
:1022F800236014484FF4003103F008FA40B1236812
:102308005A1E2260002BF4D1BDE87040FEF7E4BBF2
:102318000C48012103F0CCF84FF48053236009489E
:10232800094903F0DFF928B923685A1E2260002BF7
:10233800F5D1E9E730462946BDE87040FFF7D6BE3B
:102348003800002000540040010003001D4B586075
:102358005A68012A19D0022800D070471A4ADA6050
:102368004FF400129A60194A1A61194A0021116043
:102378000B225A61174A9A61103ADA61164A1A62B0
:10238800164A5A62164A9A627047164ADA604FF439
:1023980000129A60144A1A610D4A002111602F2216
:1023A8005A614FF020529A614FF01052DA614FF0A3
:1023B80001521A624FF008525A624FF004529A6260
:1023C800704700BF38000020106002400C740040C5
:1023D8006801002020000010010080100800001093
:1023E80004008010B86002400C3C00402DE9F04F1A
:1023F800642991B0164600F21382C44FC1EB012143
:1024080087FB0137C917C1EB6717FFB207F1190836
:102418005FFA88F80820012103F0F2FA4FF0020968
:1024280000254FF0010ABA488DF80CA002A94FF018
:10243800100BCDF808B08DF80D908DF80E508DF872
:102448000F5002F0C3FE0720514603F0D9FA4FF4AB
:102458001073B048029302A98DF80C908DF80D9076
:102468008DF80EA08DF80F5002F0B0FE0621042260
:10247800A848A94C02F046FF04220921A54802F009
:1024880041FF4FF4A053A548029302A98DF80C9080
:102498008DF80D908DF80E508DF80F5002F096FEC5
:1024A800042106229E4802F02DFF0A2106229B489D
:1024B80002F028FF63684B4500F0F38102A99848B1
:1024C800CDF808B002F082FE94480C21062202F0F2
:1024D80019FF02230025802290488DF80C3002A9AC
:1024E8008DF80D3002928DF80E508DF80F5002F0D5
:1024F8006DFE8A480721062202F004FF2A46844816
:10250800102102F0F3FE44F6FF75013DFDD10122D2
:102518007F48102102F0EAFE01214FF4001003F079
:1025280093FA804802F006FF0DF140097E4B7D4882
:1025380049F8303D4BF6FF73ADF816303323ADF84C
:1025480018304FF480630121ADF81A304FF48043FE
:10255800ADF81C30ADF8145002F09CFF71484946A4
:1025680002F01EFF4FF4961323606E484FF40031BB
:1025780003F0CCF8002800F0F48123685A1E22608A
:10258800002BF2D1FEF7A8FA81464FF49613236088
:1025980064484FF4003103F0B9F8002800F0CD8109
:1025A80023685A1E2260002BF2D1FEF795FA5F4D80
:1025B800AF232B714FF496138144236059484FF48D
:1025C800003103F0A3F8002800F0A38123685A1E05
:1025D8002260002BF2D1FEF77FFA4FF49613814464
:1025E800236050484FF4003103F090F8002800F0C1
:1025F8007C8123685A1E2260002BF2D1FEF76CFA08
:102608004FF49613E62F8144236000F2E980454891
:102618004FF4003103F07AF8002800F04C82236868
:102628005A1E2260002BF2D1FEF756FA4FF4961389
:1026380023603C484FF4003103F068F8002800F0AC
:102648004E8223685A1E2260002BF2D1FEF744FA0C
:102658006368022B00F057824FF4961323603148C9
:102668004FF4003103F052F8002800F0EB812368A2
:102678005A1E2260002BF2D1FEF72EFA4FF4961361
:102688008144236027484FF4003103F03FF80028C5
:1026980000F0C48123685A1E2260002BF2D1FEF795
:1026A8001BFA6368022B814413D01B4B4FF496121C
:1026B8001A601C484FF4003103F028F8002800F095
:1026C800E68123685A1E2260002BF2D1FEF704FA35
:1026D80081444FF49613236012484FF4003103F0FD
:1026E80015F8002800F0798123685A1E2260002B13
:1026F800F2D1FEF7F1F94FF49613814423600948AB
:102708004FF4003103F002F812E000BF1F85EB51CF
:10271800000C02400004024038000020000802407B
:102728000000024000540040A0860100680100201B
:10273800002800F03E8123685A1E2260002BDED15B
:10274800FEF7CAF94FF4961381442360AD484FF45D
:10275800003102F0DBFF002800F0178123685A1EC1
:102768002260002BF2D1FEF7B7F94FF4961309EB6C
:1027780000082360A3484FF4003102F0C7FF002887
:1027880000F09F8023685A1E2260002BF2D1FEF7CA
:10279800A3F9034601214FF40040984403F054F98B
:1027A800994803F019FA00274FF400739648ADF8DA
:1027B800203008A9ADF826300A96ADF82270ADF899
:1027C8002470ADF82C7003F067FA6368022B00F0F0
:1027D8004D81B8F1000F27D0012011B0BDE8F08F6E
:1027E80088484FF4003102F091FF002800F002827F
:1027F80023685A1E2260002BF2D1FEF76DF94FF4C0
:10280800961323607F484FF4003102F07FFF0028C1
:1028180000F0DC8123685A1E2260002BF2D115E7F4
:102828004FF07D086427F5E56668784F012E00F0C3
:1028380037826268012A00F0F1817548012103F0AE
:10284800DFF84FF00050012103F0FEF810230024B8
:102858007048029302A903238DF80C308DF80F40BD
:1028680002F0B4FC0CA920460C940D940F9401F0CE
:102878006BFA2046012101F085FA63487121012293
:1028880003F044FB332301A88DF8043001238DF8AD
:1028980005408DF806408DF8073000F0FFFF002056
:1028A8009BE75046514603F0ABF803235948CDF84F
:1028B80008B002A98DF80C308DF80F5002F086FC94
:1028C80007E65048012102F0F3FD4FF480532360DE
:1028D8004C48514902F006FF002840F0AA812368BD
:1028E8005A1E2260002BF3D151E74648012102F01D
:1028F800DFFD4FF4805323604248474902F0F2FE5F
:10290800002840F0918123685A1E2260002BF3D1E1
:1029180074E63C48012102F0CBFD4FF4805323605C
:1029280038483D4902F0DEFE002840F0AC812368BB
:102938005A1E2260002BF3D14DE63248012102F0E5
:10294800B7FD4FF4805323602E48334902F0CAFE86
:10295800002840F0938123685A1E2260002BF3D18F
:1029680023E62848012102F0A3FD4FF48053236099
:102978002448294902F0B6FE002840F079812368EE
:102988005A1E2260002BF3D1FCE51E48012102F0FB
:102998008FFD4FF4805323601A481F4902F0A2FEAE
:1029A800002840F0608123685A1E2260002BF3D172
:1029B800D9E61448012102F07BFD4FF480532360CF
:1029C8001048154902F08EFE002840F04781236820
:1029D8005A1E2260002BF3D1B2E60A48012102F008
:1029E80067FD4FF48053236006480B4902F07AFED6
:1029F800002840F02E8123685A1E2260002BF3D154
:102A080077E600BF00540040003C0040380000203A
:102A18000100200000000240010003009C48012141
:102A280002F046FD4FF4805323609948994902F01B
:102A380059FE002840F0088123685A1E2260002BA6
:102A4800F3D12CE69248012102F032FD4FF4805375
:102A580023608F488F4902F045FE002840F0EF8040
:102A680023685A1E2260002BF3D105E601214FF09E
:102A7800005002F0E9FF0CA938460C970D970F9704
:102A880001F062F93846012101F07CF9A1E680489D
:102A9800012102F00DFD4FF4805323607C487D49ED
:102AA80002F020FE002840F0408123685A1E226070
:102AB800002BF3D10AE67648012102F0F9FC4FF425
:102AC800805323607248734902F00CFE002840F0DE
:102AD800368123685A1E2260002BF3D1A4E56C4886
:102AE800012102F0E5FC4FF48053236068486949EE
:102AF80002F0F8FD002840F01D8123685A1E22606C
:102B0800002BF3D1A2E5644B4FF496121A6060488B
:102B18004FF4003102F0FAFD002800F02881236804
:102B28005A1E2260002BF2D1FDF7D6FF4FF4961300
:102B38008144236056484FF4003102F0E7FD002835
:102B480000F0028123685A1E2260002BF2D1FDF7A3
:102B5800C3FF4FF4961309EB000723604C484FF46A
:102B6800003102F0D3FD002800F03A8123685A1E94
:102B78002260002BF2D1FDF7AFFF4FF496133F18F8
:102B8800236043484FF4003102F0C0FD002800F0F4
:102B9800148123685A1E2260002BF2D1FDF79CFF96
:102BA8004FF496133F18236039484FF4003102F070
:102BB800ADFD002800F0EE8023685A1E2260002B2D
:102BC800F2D1FDF789FF07EB000945E530480121FF
:102BD80002F06EFC4FF4805323602D482D4902F01B
:102BE80081FD002840F0138123685A1E2260002BC3
:102BF800F3D12BE52648012102F05AFC4FF480530B
:102C080023602348234902F06DFD002840F0FA8034
:102C180023685A1E2260002BF3D1EEE51F480221DB
:102C280003F06AF90020D8E506200421FFF75EFAD0
:102C3800E6E41B200A21FFF759FA0346AAE5022019
:102C48009E21FFF753FA19E50A200021FFF74EFAF3
:102C580027E527200021FFF749FA4CE51F200F211F
:102C6800FFF744FA6EE51A200A21FFF73FFA7CE5E0
:102C780002200121FFF73AFA814686E40420AF21B9
:102C8800FFF734FA93E405208121FFF72FFAA4E433
:102C9800005400400100030038000020003C0040C0
:102CA800B868314602F0ACFE4146F86801F020FAF7
:102CB800F86801F03DF9654B3A6929685A60402285
:102CC800DA604FF6FE721A614FF480629A614FF42F
:102CD8000062DA614FF4005219601A621946F86806
:102CE800C3F808804FF40032C3F81480C3F8248076
:102CF8009A62C3F82C80C3F83080C3F83480C3F8D4
:102D0800388001F09DF9F8681021324601F072FA16
:102D18007B698DF8058001A88DF804308DF8068050
:102D28008DF8076000F0BAFD83E50E200421FFF757
:102D3800DDF9CDE441462120FFF7D8F988E42020C9
:102D48004146FFF7D3F971E44148012102F0B0FB95
:102D58004FF4805323603E483E4902F0C3FC0028EC
:102D68005FD123685A1E2260002BF4D1EFE6384861
:102D7800012102F09DFB4FF480532360344835490C
:102D880002F0B0FC002847D123685A1E2260002BAD
:102D9800F4D1C9E62E48012102F08AFB4FF4805392
:102DA80023602B482B4902F09DFC002843D123685F
:102DB8005A1E2260002BF4D103E72548012102F0B6
:102DC80077FB4FF4805323602148224902F08AFCA4
:102DD800002835D123685A1E2260002BF4D1DDE685
:102DE8001B48012102F064FB4FF48053236018480C
:102DF800184902F077FCC8B923685A1E2260002BD4
:102E0800F5D1B8E620204146FFF770F9F7E4212014
:102E18004146FFF76BF91BE408200121FFF766F92B
:102E280084E609200121FFF761F992E60E20C0210E
:102E3800FFF75CF9A1E615200021FFF757F9C2E674
:102E480014200021FFF752F9AAE600BF3C08002031
:102E5800005400400100030030B5454C85B063695B
:102E6800002501A88DF804308DF805508DF806501E
:102E78008DF8075000F012FD2946E06801F038F996
:102E8800E06801F055F83B4810212A4602F02EFA76
:102E980044F6FF73013BFDD136481021012202F0B0
:102EA80025FA4FF49613236033484FF4003102F0AB
:102EB8002DFC002845D023685A1E2260002BF3D130
:102EC800FDF70AFE002402A94FF4A0532B480293F1
:102ED8008DF80C408DF80D408DF80E408DF80F40A0
:102EE80002F074F9102302A92548029302F06EF942
:102EF80004212246224802F005FA0A2122461F48E8
:102F080002F000FA22460C211C4802F0FBF980234B
:102F180002A91A48029302F059F906220721174814
:102F280002F0F0F92146174802F04AFF154802F06E
:102F380053FE4FF40040214602F086FD204605B0BE
:102F480030BD0D48012102F0B3FA4FF480532360DD
:102F580009480D4902F0C6FB28B923685A1E2260A9
:102F6800002BF5D1ACE702200121FFF7BFF8A9E754
:102F780038000020000C02400054004000080240C5
:102F880000000240003C0040010003002DE9F04130
:102F98001F4CB1F5802F0D46E16206462AD28A08F9
:102FA800D4F804801A4F1B4BF8689E60B8F1010FE3
:102FB80023D019461A6101F043F8F868012101F09D
:102FC80097F81548838B03F480639BB213B90121EA
:102FD80002F0F6FEE36A4FF6FF72934228BF1346EB
:102FE8000E4AC3EB550506EB430625631660002021
:102FF800BDE8F0814FF6FF72D2E7520819461A6110
:1030080001F01EF8F868414601F072F8D9E700BFF0
:10301800380000203C080020003C0040FC0700204D
:1030280070B5002851D0804E804C31794FF49613FA
:103038000D4623607E484FF4003102F067FB0028FC
:1030480000F0A08023685A1E2260002BF2D1FDF701
:1030580043FD054631794FF496130E4623607448B4
:103068004FF4003102F052FB002865D023685A1E45
:103078002260002BF3D1FDF72FFD4FF4961345196D
:1030880023606B484FF4003102F040FB002866D003
:1030980023685A1E2260002BF3D1FDF71DFD2D1861
:1030A80001D0012070BD634E02213046012202F09A
:1030B80023FFE068012101F01BF8B48B04F480645D
:1030C800A4B2002C32D0284670BD584C4FF4961349
:1030D800236057484FF4003102F018FB002876D0DF
:1030E80023685A1E2260002BF3D1FDF7F5FC064633
:1030F8004FF4961323604E484FF4003102F006FB5C
:10310800002852D023685D1E2560002BF3D1FDF7FF
:10311800E3FC8619C5D102213246464802F0ECFE8E
:10312800E068314600F0E4FF304670BD30460121CA
:1031380002F046FE204670BD3D48012102F0B8F974
:103148004FF4805323603A483B4902F0CBFA0028F9
:103158004FD123685A1E2260002BF4D18BE73448E4
:10316800012102F0A5F94FF4805323603048324919
:1031780002F0B8FA002847D123685A1E2260002BB3
:10318800F4D18AE72A48012102F092F94FF48053DA
:1031980023602748284902F0A5FA00282ED1236881
:1031A8005A1E2260002BF4D151E72148012102F078
:1031B8007FF94FF4805323601D481F4902F092FAAB
:1031C80068BB23685A1E2260002BF5D19FE7184878
:1031D800012102F06DF94FF4805323601448164919
:1031E80002F080FAA8B923685A1E2260002BF5D194
:1031F8007BE704203146FEF779FF3EE729460420A5
:10320800FEF774FF054625E702209E21FEF76EFFB4
:1032180045E70420FF21FEF769FF064668E702201C
:103228000121FEF763FF74E76801002038000020E1
:1032380000540040003C00400100030070B5504CB1
:103248004FF49613054623604E484FF4003102F0C0
:103258005DFA00284CD023685A1E2260002BF3D157
:10326800FDF73AFC4FF49613022D236019D0454818
:103278004FF4003102F04AFA00284BD023685A1E56
:103288002260002BF3D1FDF727FC054640F6FF72BC
:10329800013AFDD13C48102102F028F895B10120EF
:1032A80070BD38484FF4003102F030FA00284ED093
:1032B80023685A1E2260002BF3D1FDF70DFC05464A
:1032C800002DECD1E068294600F012FFE669A169FB
:1032D800226A636AE06831431143194300F070FFC2
:1032E8002A48294602F06CFDE36A2846236370BD2C
:1032F8002448012102F0DCF84FF480532360214870
:10330800234902F0EFF9B8B923685A1E2260002B4E
:10331800F5D1A5E71B48012102F0CAF84FF4805304
:10332800236018481A4902F0DDF950B923685A1E7B
:103338002260002BF5D1A6E70420FF21FEF7D6FE78
:1033480090E702209F21FEF7D1FE05469EE70D4833
:10335800012102F0ADF84FF48053236009480C496D
:1033680002F0C0F928B923685A1E2260002BF5D153
:10337800A3E702209F21FEF7B9FE05468EE700BFAE
:103388003800002000540040000C0240003C00407F
:1033980001000300642870B56FD85D4BC0EB0020B6
:1033A80083FB0023C017C0EB6313DBB2E62B27D9DE
:1033B8001933584CDDB24FF49613236056484FF436
:1033C800003102F0A3F900287ED023685A1E22603B
:1033D800002BF3D1FDF780FB06464FF496132360CC
:1033E8004D484FF4003102F091F900285AD0236873
:1033F8005A1E2260002BF3D1FDF76EFB801970BDB9
:103408001933DDB2434C4FF49613236042484FF40E
:10341800003102F07BF9002831D023685A1E22605F
:10342800002BF3D1FDF758FB06464FF496133A48A4
:1034380023604FF4003102F069F958B123685A1E2D
:103448002260002BD8D034484FF4003102F05EF9E6
:103458000028F3D13048012102F02AF84FF48053B4
:1034680023602D482D4902F03DF900283ED12368FC
:103478005A1E2260002BF4D1BEE77D25C2E72648FC
:10348800012102F015F84FF48053236022482349A4
:1034980002F028F900282ED123685A1E2260002B3A
:1034A800F4D1BFE71C48012102F002F84FF4805321
:1034B80023601948194902F015F9B8B92268531E52
:1034C8002360002AF5D197E71348012101F0F0FFA6
:1034D8004FF4805323601048104902F003F980B973
:1034E8002268531E2360002AF5D173E7212029465C
:1034F800FEF7FCFD82E720202946FEF7F7FD064689
:1035080093E720202946FEF7F1FD064665E700BF50
:103518001F85EB51380000200054004001000300D3
:10352800012838B52A4C26D02A4B19794FF496131E
:103538000D46236028484FF4003102F0E7F840B107
:1035480023685A1E2260002BF4D1BDE83840FDF7ED
:10355800C3BA2148012101F0ABFF4FF48053236027
:103568001D481E4902F0BEF8A0B923685A1E226001
:10357800002BF5D1E9E74FF49613236016484FF472
:10358800003102F0C3F858B123685A1E2260002B9C
:10359800F4D1DAE704202946BDE83840FEF7A6BD95
:1035A8000D48012101F084FF4FF4805323600A483D
:1035B8000A4902F097F828B923685A1E2260002B9E
:1035C800F5D1C2E70420FF21BDE83840FEF78EBDE3
:1035D800380000206801002000540040010003006A
:1035E80070B5234CE068A16900F0CEFD00282FD00B
:1035F800256B002D2DD0E0681D4D00F0BDFD002885
:10360800F9D11C4CE868A96900F0DAFD1A4B216869
:103618002A6B9960E86819464FF6FF76B24294BF64
:103628001A611E6100F00CFDE868012100F060FDE0
:103638002B6B2268E868B34238BF1E4602EB46028D
:1036480001219E1B22602E63BDE8704000F050BD32
:1036580070BDE068294600F04BFDE068A16900F004
:10366800AFFD044B18682946BDE87040FDF7F8B96E
:1036780038000020FC0700203C08002070B5234CCF
:10368800E068A16900F080FD00282FD0256B002D8F
:103698002DD0E0681D4D00F06FFD0028F9D11C4CBD
:1036A800E868A96900F08CFD1A4B21682A6B9960BB
:1036B800E86819464FF6FF76B24294BF1A611E6158
:1036C80000F0BEFCE868012100F012FD2B6B2268B7
:1036D800E868B34238BF1E4602EB460201219E1B32
:1036E80022602E63BDE8704000F002BD70BDE06846
:1036F800294600F0FDFCE068A16900F061FD044B7B
:1037080018682946BDE87040FDF7AAB938000020BE
:10371800FC0700203C08002008B50C48022102F0F4
:1037280005FC58B10A4B5B68022B08D0FDF79CF9E1
:1037380001460648BDE8084002F0BEBB08BDFDF7DB
:1037480093F90146042000F063FBEFE7003C0040DA
:103758003800002070B5134C134B65680646012DE0
:103768000A46E0689E6013D019461A6100F068FCAA
:10377800E068012100F0BCFC0C48838B03F48063F3
:103788009BB203B170BD0121BDE8704002F018BBC7
:103798004A0819461A6100F053FCE068294600F00F
:1037A800A7FCE9E7380000203C080020003C004066
:1037B80010B5012186B0104802F022F901214FF01E
:1037C800005002F041F910230024694600930B4889
:1037D8008DF8074003238DF8043001F0F7FC02A9A7
:1037E800204602940394059400F0AEFA2046012185
:1037F80000F0C8FA06B010BD010020000000024029
:1038080008B501214FF4804002F066F94FF480407A
:103818000021BDE8084002F05FB900BF014B186005
:10382800704700BF003801408A080C4B023201F093
:10383800030130B4890053F822500F2404FA01F42C
:1038480025EA040443F8224053F8224000FA01F024
:10385800044343F8224030BC704700BF00380140A1
:10386800014B1860704700BFDC002742014B18600D
:10387800704700BF00042742024B186AC0F30020BB
:10388800704700BF0038014040F0BF60024B40F471
:103898000030D860704700BF00ED00E0C37830B456
:1038A80063B903780122590903F01F0302FA03F3ED
:1038B8002031154A42F8213030BC7047134B457807
:1038C800DA6884780378D243C2F30222C2F1040191
:1038D800C9B205FA01F10F2545FA02F2C9B2224030
:1038E80003F160430A4303F56143120183F800239F
:1038F80003780122590903F01F0302FA03F3024A6D
:1039080042F82130D8E700BF00E100E000ED00E018
:1039180021F0604121F07F01014B08439860704716
:1039280000ED00E0044B1A6919B922EA0000186199
:10393800704710431861704700ED00E0044B1A68A7
:1039480004280CBF42F0040222F004021A607047F7
:1039580010E000E008B501214FF4807002F0BCF8D7
:103968004FF480700021BDE8084002F0B5B800BFF0
:10397800426891F804C0134B2DE9F0010E68CD6838
:103988000C694F7922F0407828F4807848EA0606D6
:1039980046EA0C26466086682C438D68334044EA24
:1039A8000502134343EA470383600B7DC26A013B68
:1039B80022F47002DBB242EA0353C362BDE8F001AD
:1039C800704700BFFDF7FFC0002303600371437118
:1039D8008360C360036101230375704770B490E886
:1039E8004200064A85685468C068054B314329433C
:1039F800234001430B43536070BC704700230140D0
:103A0800E030FCFF0023036043608360C3607047BD
:103A1800836819B923F001038360704743F00103F9
:103A280083607047436823F4400323F40073194309
:103A38004160704741628262704700BF436823F06B
:103A48001F03194341607047054B5A6818B922F49F
:103A580000025A60704742F400025A60704700BF83
:103A680000230140054B5A6818B922F480025A60B5
:103A7800704742F480025A60704700BF002301403B
:103A8800092970B421D901EB41041E3CC6680725F9
:103A980005FA04F526EA050503FA04F445EA0403E1
:103AA800062AC36020D90C2A02EB82022BD9413A9C
:103AB800C46A1F2303FA02F324EA030301FA02F19A
:103AC80043EA0102C26270BC7047066901EB410417
:103AD800072505FA04F526EA050503FA04F445EA7C
:103AE8000403062A0361DED8013A02EB8202446B22
:103AF8001F2303FA02F324EA030301FA02F143EA5B
:103B080001024263DFE7233A046B1F2303FA02F33F
:103B180024EA030301FA02F143EA01020263D2E74D
:103B2800836843F080438360704700BF8068C0F3B8
:103B380080507047836819B923F4806383607047A5
:103B480043F4806383607047836819B923F00203E4
:103B58008360704743F0020383607047436801390C
:103B680023F4604343EA413141607047436819B91F
:103B780023F400634360704743F400634360704775
:103B8800C06C80B2704700BF014B1868704700BF17
:103B980008230140836819B923F480738360704750
:103BA80043F4807383607047836819B923F4007302
:103BB8008360704743F4007383607047054B5A680D
:103BC80018B922F400525A60704742F400525A6001
:103BD800704700BF00230140092970B420D8066946
:103BE80001EB4104072505FA04F526EA050503FA61
:103BF80004F445EA04030361846BC4F30153D31A44
:103C08000233DBB203EB83031F2202FA03F224EA36
:103C1800020401FA03F144EA0103836370BC7047AC
:103C280001EB4104C6681E3C072505FA04F526EA9F
:103C3800050503FA04F445EA0403C360DCE700BFA2
:103C4800836B013923F4401343EA015181637047C0
:103C580082B0002301930190019BC9180191019B37
:103C68001A6002B0704700BF836823F470231943B9
:103C780081607047836823F440131943816070475B
:103C8800836843F480038360704700BF8068C0F393
:103C980080507047436819B923F4806343607047C4
:103CA80043F4806343607047436819B923F4805331
:103CB8004360704743F480534360704782B00023E9
:103CC80001930190019B283359180191019B1868B1
:103CD80080B202B0704700BF0123C9B203FA01F1F4
:103CE80043681AB923EA01014160704719434160EA
:103CF800704700BF036819420CBF002001207047BD
:103D0800C9430160704700BF4368006810EA11208A
:103D180007D00122C9B202FA01F119420CBF0020F2
:103D2800012070476FEA11210160704708B5012131
:103D38004FF0005001F0C4FE4FF000500021BDE8E4
:103D4800084001F0BDBE00BF70B491E860008C6807
:103D5800084BC9681A6835432C4340F6FE7606FAC4
:103D680000F6214322EA060201FA00F002431A6033
:103D780070BC704700740040002303604360836098
:103D8800C3607047074B1A6831B9012101FA00F086
:103D980022EA000018607047012101FA00F0104380
:103DA8001860704700740040084B00095A6831B920
:103DB800012101FA00F022EA000058607047012151
:103DC80001FA00F010435860704700BF00740040CB
:103DD800054B5A6818B922F003025A60704742F03E
:103DE80003025A60704700BF00740040074B32B9A5
:103DF8001A6801FA00F122EA0101196070471A688D
:103E080001FA00F111431960704700BF00740040C7
:103E180082B000230193054B0193019B08331818C6
:103E28000190019B196002B0704700BF0074004008
:103E380082B000230193054B0193019B143318189A
:103E48000190019B196002B0704700BF00740040E8
:103E58000828044B0CBF42EA012142EA0141C15043
:103E6800704700BF2074004082B000230193064BC6
:103E78000193019B2C3303EB90000190019B186880
:103E880080B202B0704700BF00740040084B1A6847
:103E980039B94FF4805101FA00F022EA00001860A5
:103EA80070474FF4805101FA00F0104318607047D2
:103EB80000740040074B32B91A6801FA00F122EA8F
:103EC8000101196070471A6801FA00F1114319607D
:103ED800704700BF00740040044B5B6B01FA00F1AF
:103EE80019420CBF00200120704700BF0074004039
:103EF800024B01FA00F15963704700BF007400409B
:103F0800064B1A685B6B01FA00F111EA030003D053
:103F180011420CBF00200120704700BF0074004010
:103F2800024B01FA00F15963704700BF007400406A
:103F38000268002322F0010202600360436083608C
:103F4800C3600361212343612A4B984236D02A4B30
:103F5800984237D0294B984239D0294B98423BD0C8
:103F6800284B98423DD0284B98423ED0274B984248
:103F78001BD0274B98421CD0264B98421ED0264B6C
:103F880098421FD0254B984221D0254B984223D0E8
:103F9800244B984225D0244B984226D0234B984254
:103FA80003D0234B984204D07047224A43F8942CFC
:103FB80070474FF03D5243F8AC2CF5E73D2243F8EB
:103FC800082C70474FF4746243F8202C70474FF464
:103FD800741243F8382C70474FF0746243F8502C31
:103FE8007047154A43F8642C7047144A43F87C2CF0
:103FF800704700BF106002402860024040600240E5
:10400800586002407060024088600240A060024030
:10401800B8600240106402402864024040640240D4
:10402800586402407064024088640240A064024000
:10403800B864024000003D203D000020400F0020F1
:104048002DE9F00FD1F80CB0D1F800A04E6BD1F8E3
:1040580014904A6AD1F81880D1F81CC08B6A0F6A8C
:10406800CD6A0C6986B04BEA0A0A04964AEA090A3C
:104078000E6B02924AEA080A00964AEA0C0A029E65
:1040880003934AEA07073743039E02688B6B019242
:104098003743049E059337430B4B019E4A68896852
:1040A8003340059E37433B4303604369009E23F03A
:1040B800070335431D43456144608260C16006B013
:1040C800BDE8F00F704700BF3F801CF0002303607D
:1040D80043608360C360036143618361C3610362BA
:1040E80043628362C362036343638363704700BFB1
:1040F800036819B923F001030360704743F0010313
:1041080003607047036819B923F4004303607047DC
:1041180043F4004303607047036819B923F0200390
:104128000360704743F020030360704741607047A5
:10413800406880B2704700BF036822B923F40023A7
:1041480003600161704743F4002303600161704715
:10415800036819B923F480230360704743F480236C
:10416800036070470AB9C16070470161704700BFBA
:104178000068C0F3C0407047006800F00100704755
:10418800406900F0380070470A4B0B4A10B40B4CDA
:10419800A0428CBF104618468B004CBF436803688A
:1041A80021F0F02121F0821119420CBF00200120DA
:1041B80010BC704700600240006402400F64024077
:1041C80010B4094B094A0A4CA0428CBF1046184645
:1041D80011F0005F21F0F02121F0821114BFC160BD
:1041E800816010BC704700BF00600240006402405C
:1041F8000F6402400B060CD54369AAB143F0800353
:10420800802943610FD0036801F01E011943016042
:104218007047802907D0002AF5D1036801F01E01F4
:1042280023EA01010160704723F08003802943617C
:10423800F3D1704770B421F0F023104D104C114E9B
:1042480023F0C312B04298BF2C4692B1056805F01E
:104258001E0505EAD1258A004CBF6268226823F052
:10426800821313EA020002D0281C18BF012070BC78
:104278007047456905F08005EDE700BF0060024022
:10428800006402400F64024010B4094B094A0A4C0A
:10429800A0428CBF1046184611F0005F21F0F021B3
:1042A80021F0821114BFC160816010BC704700BF4B
:1042B80000600240006402400F640240044B002288
:1042C8001A605A609A60DA60024A5A61704700BF01
:1042D800003C0140FFFF7F00837970B423B31C4B7F
:1042E80001681E6802794579CC4326401E605E68E5
:1042F80002F1804202F59E3234405C60146821432A
:10430800116002689868D14308409860D868102DF9
:1043180001EA0001D96013D005F1804505F59E3505
:104328002B681A432A6009E00379016803F1804386
:1043380003F59E331A6822EA01021A6070BC7047BE
:10434800996811439960D9680A43DA60F6E700BFB3
:10435800003C014000230C22036003714271837109
:10436800704700BF024B1A6910431861704700BFBD
:10437800003C0140034B5B6918420CBF0020012040
:10438800704700BF003C0140014B5861704700BFB7
:10439800003C0140054B1A685B69034004D0104299
:1043A8000CBF00200120704718467047003C0140B0
:1043B800014B5861704700BF003C0140014B187029
:1043C800704700BF003C0240054B1A6818B922F438
:1043D80080721A60704742F480721A60704700BF9A
:1043E800003C0240054B1A6818B922F400721A60A2
:1043F800704742F400721A60704700BF003C0240E8
:10440800054B1A6818B922F480621A60704742F4A2
:1044180080621A60704700BF003C0240024B1A6875
:1044280042F400621A607047003C0240024B1A686E
:1044380042F480521A607047003C0240044B1A69EB
:10444800002A04DA034A5A6002F188325A60704737
:10445800003C024023016745024B1A6942F00042C2
:104468001A617047003C024010B4044683B039B169
:10447800012949D0022914BF4FF440714FF400714B
:104488000822574B8DF80620DA68D0033AD4DA6848
:10449800D20624D505238DF806309DF80630012B69
:1044A80015D14F4A09E0D368D8061ED505238DF8E3
:1044B80006309DF80630012B09D1D368DB03F2D50D
:1044C80001238DF806309DF80630012BF5D09DF8B4
:1044D8000620082A104621D003B010BC7047DA68BD
:1044E80012F0EF0F13D00623D5E7D36813F0EF0FC0
:1044F80001D00623DBE7D36813F0020F0CBF0823B3
:104508000723D4E70123C6E74FF48071B8E7DB68D7
:1045180013F0020F0CBF08230723BCE7304B1869C0
:1045280020F440701861186901431961196921F074
:10453800F8011961196941F002010C431C611969FC
:1045480041F4803119618DF80720DA68D20338D434
:10455800DA68D00637D505238DF807309DF807307F
:10456800012B15D11E4A09E0D368DB061CD50523AB
:104578008DF807309DF80730012B09D1D368D9038E
:10458800F2D501238DF807309DF80730012BF5D0BF
:10459800134B9DF807001A6922F002021A611A6982
:1045A80022F0F8021A6197E7D36813F0EF0F01D0F1
:1045B8000623DDE7D36813F0020F0CBF0823072397
:1045C800D6E70123C8E7DA6812F0EF0F01D0062317
:1045D800C2E7DB6813F0020F0CBF08230723BBE711
:1045E800003C024082B00822574B8DF80620DA685A
:1045F800D10343D4DA68D2062DD505238DF80630C9
:104608009DF80630012B15D14F4A09E0D368D90629
:1046180027D505238DF806309DF80630012B09D1E2
:10462800D368DB03F2D501238DF806309DF80630F8
:10463800012BF5D09DF80620D3B238B1012869D0F6
:10464800022814BF4FF440704FF40070082B1ED09E
:10465800184602B07047DA6812F0EF0F10D0062340
:10466800CCE7D36813F0EF0F01D00623D2E7D36865
:1046780013F0020F0CBF08230723CBE70123BDE784
:10468800DB6813F0020F0CBF08230723B6E72E4B95
:10469800196921F440711961196908431861196988
:1046A80041F004011961196941F4803119618DF8EB
:1046B8000720DA68D20337D4DA68D00636D505235E
:1046C8008DF807309DF80730012B15D11E4A09E0F7
:1046D800D368DB0618D505238DF807309DF8073019
:1046E800012B09D1D368D903F2D501238DF80730FE
:1046F8009DF80730012BF5D0134A9DF80730116952
:1047080021F004011161A3E7D36813F0EF0F04D07F
:104718000623E1E74FF4807098E7D36813F0020F9F
:104728000CBF08230723D7E70123C9E7DA6812F08B
:10473800EF0F01D00623C3E7DB6813F0020F0CBFAD
:1047480008230723BCE700BF003C024030B482B016
:10475800082451498DF80640CC680546E0033AD450
:10476800C868C00624D505218DF806109DF80610E6
:10477800012915D1484C09E0E168C8061ED5052174
:104788008DF806109DF80610012909D1E168C903C2
:10479800F2D501218DF806109DF806100129F5D0F3
:1047A8009DF80610082908461ED002B030BC704794
:1047B800C86810F0EF0F10D00621D5E7E16811F0B6
:1047C800EF0F01D00621DBE7E16811F0020F0CBF03
:1047D80008210721D4E70121C6E7C96811F0020FB3
:1047E8000CBF08210721BFE72B48046924F4407453
:1047F8000461046944F440740461046944F00104E8
:104808000461C5E900238DF80710C368D90334D4BF
:10481800C368DA0633D505238DF807309DF80730CD
:10482800012B15D11C4A09E0D368D80618D50523F1
:104838008DF807309DF80730012B09D1D368DB03C9
:10484800F2D501238DF807309DF80730012BF5D0FC
:10485800114B9DF807001A6922F001021A61A4E7BA
:10486800D36813F0EF0F01D00623E1E7D36813F004
:10487800020F0CBF08230723DAE70123CCE7C3683C
:1048880013F0EF0F01D00623C6E7C36813F0020F39
:104898000CBF08230723BFE7003C024010B483B0D5
:1048A8000822514B8DF80620DA680446D0033AD422
:1048B800DA68D20624D505238DF806309DF806302F
:1048C800012B15D1484A09E0D368D8061ED505231F
:1048D8008DF806309DF80630012B09D1D368DB032B
:1048E800F2D501238DF806309DF80630012BF5D05E
:1048F8009DF80630082B18461ED003B010BC704730
:10490800DA6812F0EF0F10D00623D5E7D36813F05A
:10491800EF0F01D00623DBE7D36813F0020F0CBFBB
:1049280008230723D4E70123C6E7DB6813F0020F47
:104938000CBF08230723BFE72B4A106920F44070F7
:104948001061106940F400701061106940F00100B6
:10495800106121608DF80730D368DB0334D4D36845
:10496800D80633D505238DF807309DF80730012B7D
:1049780015D11D4A09E0D368DB0618D505238DF843
:1049880007309DF80730012B09D1D368D903F2D538
:1049980001238DF807309DF80730012BF5D0124B15
:1049A8009DF807001A6922F001021A61A5E7D36889
:1049B80013F0EF0F01D00623E1E7D36813F0020FDD
:1049C8000CBF08230723DAE70123CCE7D36813F0E9
:1049D800EF0F01D00623C6E7D36813F0020F0CBF10
:1049E80008230723BFE700BF003C024010B483B090
:1049F8000822514B8DF80620DA680446D0033AD4D1
:104A0800DA68D20624D505238DF806309DF80630DD
:104A1800012B15D1484A09E0D368D8061ED50523CD
:104A28008DF806309DF80630012B09D1D368DB03D9
:104A3800F2D501238DF806309DF80630012BF5D00C
:104A48009DF80630082B18461ED003B010BC7047DE
:104A5800DA6812F0EF0F10D00623D5E7D36813F009
:104A6800EF0F01D00623DBE7D36813F0020F0CBF6A
:104A780008230723D4E70123C6E7DB6813F0020FF6
:104A88000CBF08230723BFE72B4A106920F44070A6
:104A98001061106940F480701061106940F00100E5
:104AA800106121808DF80730D368DB0334D4D368D4
:104AB800D80633D505238DF807309DF80730012B2C
:104AC80015D11D4A09E0D368DB0618D505238DF8F2
:104AD80007309DF80730012B09D1D368D903F2D5E7
:104AE80001238DF807309DF80730012BF5D0124BC4
:104AF8009DF807001A6922F001021A61A5E7D36838
:104B080013F0EF0F01D00623E1E7D36813F0020F8B
:104B18000CBF08230723DAE70123CCE7D36813F097
:104B2800EF0F01D00623C6E7D36813F0020F0CBFBE
:104B380008230723BFE700BF003C024010B483B03E
:104B48000822504B8DF80620DA680446D0033AD480
:104B5800DA68D20624D505238DF806309DF806308C
:104B6800012B15D1474A09E0D368D8061ED505237D
:104B78008DF806309DF80630012B09D1D368DB0388
:104B8800F2D501238DF806309DF80630012BF5D0BB
:104B98009DF80630082B18461ED003B010BC70478D
:104BA800DA6812F0EF0F10D00623D5E7D36813F0B8
:104BB800EF0F01D00623DBE7D36813F0020F0CBF19
:104BC80008230723D4E70123C6E7DB6813F0020FA5
:104BD8000CBF08230723BFE72A4A106920F4407056
:104BE800106110691061106940F0010010612170B6
:104BF8008DF80730D368DB0334D4D368D80633D5AF
:104C080005238DF807309DF80730012B15D11D4A73
:104C180009E0D368DB0618D505238DF807309DF821
:104C28000730012B09D1D368D903F2D501238DF8B8
:104C380007309DF80730012BF5D0124B9DF807007F
:104C48001A6922F001021A61A7E7D36813F0EF0F7F
:104C580001D00623E1E7D36813F0020F0CBF082345
:104C68000723DAE70123CCE7D36813F0EF0F01D06D
:104C78000623C6E7D36813F0020F0CBF08230723E7
:104C8800BFE700BF003C0240044B5A69D20704D575
:104C9800034A9A6002F144329A607047003C02402D
:104CA8003B2A1908024B5A6942F001025A617047BF
:104CB800003C024082B00822294B8DF80720DA68B0
:104CC800D20338D4DA68D20622D505238DF8073006
:104CD8009DF80730012B15D1214A09E0D368DB067E
:104CE8001CD505238DF807309DF80730012B09D115
:104CF800D368DB03F2D501238DF807309DF8073020
:104D0800012BF5D09DF80730082B16D002B070475C
:104D1800DA6812F0EF0F16D00623D7E7D36813F03E
:104D2800EF0F01D00623DDE7D36813F0020F0CBFA5
:104D380008230723D6E70123C8E70A4B1A8849B98D
:104D480010431880E2E7DB6813F0020F0CBF08235A
:104D58000723BBE792B222EA00001880D6E700BF1B
:104D6800003C0240163C024082B00822244B8DF8D9
:104D78000720DA68D1033AD4DA68D20624D50523A5
:104D88008DF807309DF80730012B15D11C4A09E032
:104D9800D368D9061ED505238DF807309DF807304E
:104DA800012B09D1D368DB03F2D501238DF8073035
:104DB8009DF80730012BF5D09DF80730082B01D15D
:104DC800104B187002B07047DA6812F0EF0F10D06D
:104DD8000623D5E7D36813F0EF0F01D00623DBE7EE
:104DE800D36813F0020F0CBF08230723D4E701236D
:104DF800C6E7DB6813F0020F0CBF08230723BFE7E1
:104E0800003C0240153C024010B483B00824294BF2
:104E18008DF80740DC6814F4803F42D1DC6814F058
:104E2800100F2BD005238DF807309DF80730012B84
:104E380015D1204C09E0E368DB0625D505238DF85C
:104E480007309DF80730012B09D1E368DB03F2D561
:104E580001238DF807309DF80730012BF5D09DF818
:104E68000730082B07D1144B1C7804F00F0420439B
:104E780001430A431A7003B010BC7047DC6814F091
:104E8800EF0F10D00623CEE7E36813F0EF0F01D041
:104E98000623D4E7E36813F0020F0CBF08230723A7
:104EA800CDE70123BFE7DB6813F0020F0CBF08232F
:104EB8000723B8E7003C0240143C0240044B1A7830
:104EC80002F0F3021A701A7810431870704700BF86
:104ED800143C0240264B274A197882B041F002015F
:104EE800197008238DF80730D368DB0336D4D368EC
:104EF800D80620D505238DF807309DF80730012BFB
:104F080015D11C4A09E0D368DB061AD505238DF8AC
:104F180007309DF80730012B09D1D368D903F2D5A2
:104F280001238DF807309DF80730012BF5D09DF847
:104F3800070002B07047D36813F0EF0F10D00623B4
:104F4800D9E7D36813F0EF0F01D00623DFE7D36862
:104F580013F0020F0CBF08230723D8E70123CAE781
:104F6800D36813F0020F0CBF08230723C3E700BF61
:104F7800143C0240003C0240024B5869C0F3471001
:104F8800704700BF003C0240014B188880B2704750
:104F9800163C0240024B1878AA3818BF0120704707
:104FA800153C0240024B187800F00C00704700BF17
:104FB800143C0240044B1A6919B922EA000018612E
:104FC8007047104318617047003C0240034BDB6890
:104FD80018420CBF00200120704700BF003C02406F
:104FE800014BD860704700BF003C02400B4BDA68A9
:104FF800D1030AD4DA68D20601D505207047DA68E9
:1050080012F0EF0F03D00620704701207047DB68CD
:1050180013F0020F0CBF082007207047003C024025
:1050280082B00822224B8DF80720DA68D10336D4E3
:10503800DA68D20620D505238DF807309DF80730A9
:10504800012B15D11A4A09E0D368D8061AD50523C9
:105058008DF807309DF80730012B09D1D368DB03A1
:10506800F2D501238DF807309DF80730012BF5D0D4
:105078009DF8070002B07047DA6812F0EF0F10D001
:105088000623D9E7D36813F0EF0F01D00623DFE733
:10509800D36813F0020F0CBF08230723D8E70123B6
:1050A800CAE7DB6813F0020F0CBF08230723C3E726
:1050B800003C024008B53C4B984224D03B4B9842F8
:1050C8002BD03B4B984232D03A4B984239D03A4B8E
:1050D800984240D0394B984247D0394B98424ED0ED
:1050E800384B984255D0384B984200D008BD012122
:1050F8004FF4807000F0C0FC4FF480700021BDE8D0
:10510800084000F0B9BC0120014600F0B5FC0120C0
:105118000021BDE8084000F0AFBC0220012100F0EA
:10512800ABFC02200021BDE8084000F0A5BC04202B
:10513800012100F0A1FC04200021BDE8084000F096
:105148009BBC0820012100F097FC08200021BDE845
:10515800084000F091BC1020012100F08DFC1020C7
:105168000021BDE8084000F087BC2020012100F0A4
:1051780083FC20200021BDE8084000F07DBC4020D1
:10518800012100F079FC40200021BDE8084000F032
:1051980073BC8020012100F06FFC80200021BDE855
:1051A800084000F069BC00BF000002400004024053
:1051B80000080240000C02400010024000140240A7
:1051C80000180240001C02400020024000222DE985
:1051D800F00713460E6801274FF0030803E0013378
:1051E8000232102B2BD007FA03F404EA0605A54275
:1051F800F5D1D0F8009091F804C008FA02F4E4431D
:1052080004EA0909C0F80090D0F800900CFA02FAF4
:105218000CF1FF3C4AEA0909BCF1010FC0F8009003
:1052280010D9C56891F807C02C40C460C5680CFA4D
:1052380002F401332C430232102BC460D3D1BDE8F1
:10524800F0077047D0F808A091F8059091F806C0CB
:1052580004EA0A0AC0F808A0D0F808A009FA02F976
:1052680049EA0A09C0F80890D0F8049029EA050527
:10527800456045680CFA03FC1FFA8CFC4CEA0505EE
:105288004560CEE700234FF6FF7202600371437159
:105298008371C371704700BF82B04FF480330193AC
:1052A800019B0B430193019BC361C161019BC361D6
:1052B800C3690193C369019302B070470369194236
:1052C8000CBF002001207047006980B2704700BF02
:1052D800436919420CBF002001207047406980B221
:1052E800704700BF01837047418370470AB9418303
:1052F80070470183704700BF416170474369594057
:1053080041617047CB08083301F0070130B48900C8
:1053180050F823500F2404FA01F425EA040440F855
:10532800234050F8234002FA01F2144340F8234086
:1053380030BC704708B5174B984212D0164B9842AC
:105348001BD0164B984200D008BD01214FF4000035
:1053580000F0B6FB4FF400000021BDE8084000F063
:10536800AFBB01214FF4001000F0AAFB4FF400106E
:105378000021BDE8084000F0A3BB01214FF48000E4
:1053880000F09EFB4FF480000021BDE8084000F0CB
:1053980097BB00BF0054004000580040005C00402C
:1053A800F0B5044685B068460D46A68800F0B6FA02
:1053B80002992E482A68A0FB013026F03F063604E1
:1053C800800C360C87B23E43A680238823F0010365
:1053D8001B041B0C2380264B9A4220D85200B1FB99
:1053E800F2F189B201372784032998BF0421A183E8
:1053F80023886E89A8882989AA899BB243F001036A
:105408002380238823F4816323F002031B041B0CED
:10541800304303430A432380228105B0F0BDEE8860
:105428004BF6FF739E421AD002EB820202EB820215
:10543800B1FBF2F141F4804189B20B051B0D0BB9A8
:1054480041F001014FF4967303FB00F0094B83FB15
:1054580000208009013041F400412084C7E702EBB5
:105468004202B1FBF2F189B2E7E700BF83DE1B43DA
:10547800A0860100D34D6210002341F288320260F9
:1054880083804BF6FF72038143814FF48043C280CF
:1054980083817047038829B923F001031B041B0C7F
:1054A800038070479BB243F001030380704700BF3D
:1054B800038829B923F480731B041B0C03807047ED
:1054C8009BB243F480730380704700BF038829B9F7
:1054D80023F400731B041B0C038070479BB243F436
:1054E80000730380704700BF1AB901F0FE01018202
:1054F800704741F001010182704700BF038829B954
:1055080023F480631B041B0C038070479BB243F495
:1055180080630380704700BF838923F0FE031B0468
:1055280001F0FE011B0C0B4383817047838929B965
:1055380023F001031B041B0C838170479BB243F0CB
:1055480001038381704700BF038829B923F0400312
:105558001B041B0C038070479BB243F0400303807D
:10556800704700BF038819B95B045B0C0380704760
:105578006FEA43436FEA534303807047038829B1B6
:1055880023F080031B041B0C038070479BB243F07D
:1055980080030380704700BFB1F5804F838B05D02F
:1055A80023F480431B041B0C838370479BB243F492
:1055B80080438383704700BFB1F5006F038805D02F
:1055C80023F400631B041B0C038070479BB243F455
:1055D80000630380704700BFB1F5005F038805D002
:1055E80023F400531B041B0C038070479BB243F445
:1055F80000530380704700BF038829B923F01003C4
:105608001B041B0C038070479BB243F010030380FC
:10561800704700BF01827047008AC0B2704700BF60
:10562800038829B923F480531B041B0C038070479B
:105638009BB243F480530380704700BFB1F5006FFD
:10564800038805D023F400631B041B0C03807047F8
:105658009BB243F400630380704700BF038829B9F5
:1056680023F020031B041B0C038070479BB243F0FC
:1056780020030380704700BF008BC0F307207047EA
:10568800838829B923F400631B041B0C83807047AB
:105698009BB243F400638380704700BF838829B9B5
:1056A80023F480531B041B0C838070479BB243F484
:1056B80080538380704700BF82B00023019301901C
:1056C800019BC9180191019B188880B202B07047EC
:1056D80083889BB21AB923EA010181807047194374
:1056E80081807047828A038B90B240EA0340084069
:1056F80020F07F400B1A584258417047828A038B2A
:1057080090B240EA034020F07F40704782B0002307
:105718000A0F0093019301900092009B21F07F41B2
:1057280053B1019B14330193019B1B6819420CBFB1
:105738000020012002B07047019B1833090C019327
:10574800F2E700BFC9438182704700BF8388808A1F
:1057580080B208409BB206D001F0E06113EA114123
:105768000CBF002001207047C9438182704700BFE9
:105778000A4B1968002241F0010119609A60196802
:1057880021F0847121F48031196005495960196844
:1057980021F480211960DA60704700BF00380240A8
:1057A80010300024024B00221A701870704700BF96
:1057B8000238024082B000230B4A019313689B030E
:1057C80009D5019B01330193019B074B1868C0F36E
:1057D800404002B07047019B01330193019BB3F530
:1057E800A06FEBD1F1E700BF00380240034B1A6805
:1057F80022F0F80242EAC000186070470038024000
:10580800014B1860704700BF00004742064B00225A
:1058180001281A701A7004D0042801D105221A70C0
:1058280070471870704700BF70380240014B18600D
:10583800704700BF800E474210B40143019C41EA03
:1058480082125B08591E42EA0464034B44EA014190
:10585800596010BC704700BF00380240014B186007
:10586800704700BF600047428001034B40EA017166
:10587800C3F88410704700BF00380240014B18601D
:10588800704700BF68004742014B1860704700BF6F
:105898004C004742034B9A6822F0EC6210430143E4
:1058A8009960704700380240034B9A6822F07842AA
:1058B800104301439960704700380240034B9A68CF
:1058C80022F0030210439860704700BF003802407E
:1058D800024B986800F00C00704700BF0038024087
:1058E800034B9A6822F0F00210439860704700BF9B
:1058F80000380240034B9A6822F4E0521043986043
:10590800704700BF00380240034B9A6822F4604297
:1059180042EAC00098607047003802401F4A936806
:1059280003F00C03042B10B41CD0082B1DD01C4B07
:1059380003601A491B4A8C68C4F30314145D23FAE4
:1059480004F343608C68C4F38224145D23FA04F4DE
:1059580084608968C1F34231525C23FA02F3C36060
:1059680010BC7047104B0360E3E7546851685268F5
:1059780064024CBF0C4B0A4B01F03F01C2F3881282
:10598800B3FBF1F303FB02F3044A5268C2F301428A
:1059980001325200B3FBF2F30360CAE70038024059
:1059A8000024F4006C00002000127A0000F4407318
:1059B800B3F5407F09D1084B996820F0704221F473
:1059C800F81122F440720A439A60034B00051A6FDB
:1059D800000D10431867704700380240014B1860EB
:1059E800704700BF3C0E4742014B1860704700BF2C
:1059F800400E4742014B1860704700BF5C014742A8
:105A0800044B1A6B19B922EA000018637047104357
:105A18001863704700380240044B5A6B19B922EAE0
:105A280000005863704710435863704700380240BD
:105A3800044B9A6B19B922EA000098637047104327
:105A48009863704700380240044B1A6C19B922EA6F
:105A5800000018647047104318647047003802400B
:105A6800044B5A6C19B922EA000058647047104375
:105A78005864704700380240044B1A6919B922EA81
:105A880000001861704710431861704700380240E1
:105A9800044B5A6919B922EA00005861704710434B
:105AA8005861704700380240044B9A6919B922EAD4
:105AB80000009861704710439861704700380240B1
:105AC800044B1A6A19B922EA000018627047104399
